{
  "_format": "hh-sol-artifact-1",
  "contractName": "MessageProxyForSchain",
  "sourceName": "contracts/schain/MessageProxyForSchain.sol",
  "abi": [
    {
      "anonymous": false,
      "inputs": [
        {
          "indexed": true,
          "internalType": "bytes32",
          "name": "dstChainHash",
          "type": "bytes32"
        },
        {
          "indexed": true,
          "internalType": "uint256",
          "name": "msgCounter",
          "type": "uint256"
        },
        {
          "indexed": true,
          "internalType": "address",
          "name": "srcContract",
          "type": "address"
        },
        {
          "indexed": false,
          "internalType": "address",
          "name": "dstContract",
          "type": "address"
        },
        {
          "indexed": false,
          "internalType": "bytes",
          "name": "data",
          "type": "bytes"
        }
      ],
      "name": "OutgoingMessage",
      "type": "event"
    },
    {
      "anonymous": false,
      "inputs": [
        {
          "indexed": true,
          "internalType": "uint256",
          "name": "msgCounter",
          "type": "uint256"
        },
        {
          "indexed": false,
          "internalType": "bytes",
          "name": "message",
          "type": "bytes"
        }
      ],
      "name": "PostMessageError",
      "type": "event"
    },
    {
      "anonymous": false,
      "inputs": [
        {
          "indexed": true,
          "internalType": "bytes32",
          "name": "role",
          "type": "bytes32"
        },
        {
          "indexed": true,
          "internalType": "bytes32",
          "name": "previousAdminRole",
          "type": "bytes32"
        },
        {
          "indexed": true,
          "internalType": "bytes32",
          "name": "newAdminRole",
          "type": "bytes32"
        }
      ],
      "name": "RoleAdminChanged",
      "type": "event"
    },
    {
      "anonymous": false,
      "inputs": [
        {
          "indexed": true,
          "internalType": "bytes32",
          "name": "role",
          "type": "bytes32"
        },
        {
          "indexed": true,
          "internalType": "address",
          "name": "account",
          "type": "address"
        },
        {
          "indexed": true,
          "internalType": "address",
          "name": "sender",
          "type": "address"
        }
      ],
      "name": "RoleGranted",
      "type": "event"
    },
    {
      "anonymous": false,
      "inputs": [
        {
          "indexed": true,
          "internalType": "bytes32",
          "name": "role",
          "type": "bytes32"
        },
        {
          "indexed": true,
          "internalType": "address",
          "name": "account",
          "type": "address"
        },
        {
          "indexed": true,
          "internalType": "address",
          "name": "sender",
          "type": "address"
        }
      ],
      "name": "RoleRevoked",
      "type": "event"
    },
    {
      "inputs": [],
      "name": "CHAIN_CONNECTOR_ROLE",
      "outputs": [
        {
          "internalType": "bytes32",
          "name": "",
          "type": "bytes32"
        }
      ],
      "stateMutability": "view",
      "type": "function"
    },
    {
      "inputs": [],
      "name": "CONSTANT_SETTER_ROLE",
      "outputs": [
        {
          "internalType": "bytes32",
          "name": "",
          "type": "bytes32"
        }
      ],
      "stateMutability": "view",
      "type": "function"
    },
    {
      "inputs": [],
      "name": "DEBUGGER_ROLE",
      "outputs": [
        {
          "internalType": "bytes32",
          "name": "",
          "type": "bytes32"
        }
      ],
      "stateMutability": "view",
      "type": "function"
    },
    {
      "inputs": [],
      "name": "DEFAULT_ADMIN_ROLE",
      "outputs": [
        {
          "internalType": "bytes32",
          "name": "",
          "type": "bytes32"
        }
      ],
      "stateMutability": "view",
      "type": "function"
    },
    {
      "inputs": [],
      "name": "EXTRA_CONTRACT_REGISTRAR_ROLE",
      "outputs": [
        {
          "internalType": "bytes32",
          "name": "",
          "type": "bytes32"
        }
      ],
      "stateMutability": "view",
      "type": "function"
    },
    {
      "inputs": [
        {
          "internalType": "string",
          "name": "chainName",
          "type": "string"
        }
      ],
      "name": "addConnectedChain",
      "outputs": [],
      "stateMutability": "nonpayable",
      "type": "function"
    },
    {
      "inputs": [
        {
          "internalType": "bytes32",
          "name": "",
          "type": "bytes32"
        }
      ],
      "name": "connectedChains",
      "outputs": [
        {
          "internalType": "uint256",
          "name": "incomingMessageCounter",
          "type": "uint256"
        },
        {
          "internalType": "uint256",
          "name": "outgoingMessageCounter",
          "type": "uint256"
        },
        {
          "internalType": "bool",
          "name": "inited",
          "type": "bool"
        }
      ],
      "stateMutability": "view",
      "type": "function"
    },
    {
      "inputs": [],
      "name": "gasLimit",
      "outputs": [
        {
          "internalType": "uint256",
          "name": "",
          "type": "uint256"
        }
      ],
      "stateMutability": "view",
      "type": "function"
    },
    {
      "inputs": [
        {
          "internalType": "string",
          "name": "fromSchainName",
          "type": "string"
        }
      ],
      "name": "getIncomingMessagesCounter",
      "outputs": [
        {
          "internalType": "uint256",
          "name": "",
          "type": "uint256"
        }
      ],
      "stateMutability": "view",
      "type": "function"
    },
    {
      "inputs": [
        {
          "internalType": "string",
          "name": "targetSchainName",
          "type": "string"
        }
      ],
      "name": "getOutgoingMessagesCounter",
      "outputs": [
        {
          "internalType": "uint256",
          "name": "",
          "type": "uint256"
        }
      ],
      "stateMutability": "view",
      "type": "function"
    },
    {
      "inputs": [
        {
          "internalType": "bytes32",
          "name": "role",
          "type": "bytes32"
        }
      ],
      "name": "getRoleAdmin",
      "outputs": [
        {
          "internalType": "bytes32",
          "name": "",
          "type": "bytes32"
        }
      ],
      "stateMutability": "view",
      "type": "function"
    },
    {
      "inputs": [
        {
          "internalType": "bytes32",
          "name": "role",
          "type": "bytes32"
        },
        {
          "internalType": "uint256",
          "name": "index",
          "type": "uint256"
        }
      ],
      "name": "getRoleMember",
      "outputs": [
        {
          "internalType": "address",
          "name": "",
          "type": "address"
        }
      ],
      "stateMutability": "view",
      "type": "function"
    },
    {
      "inputs": [
        {
          "internalType": "bytes32",
          "name": "role",
          "type": "bytes32"
        }
      ],
      "name": "getRoleMemberCount",
      "outputs": [
        {
          "internalType": "uint256",
          "name": "",
          "type": "uint256"
        }
      ],
      "stateMutability": "view",
      "type": "function"
    },
    {
      "inputs": [
        {
          "internalType": "bytes32",
          "name": "role",
          "type": "bytes32"
        },
        {
          "internalType": "address",
          "name": "account",
          "type": "address"
        }
      ],
      "name": "grantRole",
      "outputs": [],
      "stateMutability": "nonpayable",
      "type": "function"
    },
    {
      "inputs": [
        {
          "internalType": "bytes32",
          "name": "role",
          "type": "bytes32"
        },
        {
          "internalType": "address",
          "name": "account",
          "type": "address"
        }
      ],
      "name": "hasRole",
      "outputs": [
        {
          "internalType": "bool",
          "name": "",
          "type": "bool"
        }
      ],
      "stateMutability": "view",
      "type": "function"
    },
    {
      "inputs": [
        {
          "internalType": "contract KeyStorage",
          "name": "blsKeyStorage",
          "type": "address"
        },
        {
          "internalType": "string",
          "name": "schainName",
          "type": "string"
        }
      ],
      "name": "initialize",
      "outputs": [],
      "stateMutability": "nonpayable",
      "type": "function"
    },
    {
      "inputs": [
        {
          "internalType": "string",
          "name": "schainName",
          "type": "string"
        }
      ],
      "name": "isConnectedChain",
      "outputs": [
        {
          "internalType": "bool",
          "name": "",
          "type": "bool"
        }
      ],
      "stateMutability": "view",
      "type": "function"
    },
    {
      "inputs": [],
      "name": "keyStorage",
      "outputs": [
        {
          "internalType": "contract KeyStorage",
          "name": "",
          "type": "address"
        }
      ],
      "stateMutability": "view",
      "type": "function"
    },
    {
      "inputs": [
        {
          "internalType": "string",
          "name": "schainName",
          "type": "string"
        }
      ],
      "name": "moveIncomingCounter",
      "outputs": [],
      "stateMutability": "nonpayable",
      "type": "function"
    },
    {
      "inputs": [
        {
          "internalType": "string",
          "name": "fromChainName",
          "type": "string"
        },
        {
          "internalType": "uint256",
          "name": "startingCounter",
          "type": "uint256"
        },
        {
          "components": [
            {
              "internalType": "address",
              "name": "sender",
              "type": "address"
            },
            {
              "internalType": "address",
              "name": "destinationContract",
              "type": "address"
            },
            {
              "internalType": "bytes",
              "name": "data",
              "type": "bytes"
            }
          ],
          "internalType": "struct MessageProxyForSchain.Message[]",
          "name": "messages",
          "type": "tuple[]"
        },
        {
          "components": [
            {
              "internalType": "uint256[2]",
              "name": "blsSignature",
              "type": "uint256[2]"
            },
            {
              "internalType": "uint256",
              "name": "hashA",
              "type": "uint256"
            },
            {
              "internalType": "uint256",
              "name": "hashB",
              "type": "uint256"
            },
            {
              "internalType": "uint256",
              "name": "counter",
              "type": "uint256"
            }
          ],
          "internalType": "struct MessageProxyForSchain.Signature",
          "name": "signature",
          "type": "tuple"
        },
        {
          "internalType": "uint256",
          "name": "idxLastToPopNotIncluding",
          "type": "uint256"
        }
      ],
      "name": "postIncomingMessages",
      "outputs": [],
      "stateMutability": "nonpayable",
      "type": "function"
    },
    {
      "inputs": [
        {
          "internalType": "string",
          "name": "targetChainName",
          "type": "string"
        },
        {
          "internalType": "address",
          "name": "dstContract",
          "type": "address"
        },
        {
          "internalType": "bytes",
          "name": "data",
          "type": "bytes"
        }
      ],
      "name": "postOutgoingMessage",
      "outputs": [],
      "stateMutability": "nonpayable",
      "type": "function"
    },
    {
      "inputs": [
        {
          "internalType": "string",
          "name": "schainName",
          "type": "string"
        },
        {
          "internalType": "address",
          "name": "contractOnSchain",
          "type": "address"
        }
      ],
      "name": "registerExtraContract",
      "outputs": [],
      "stateMutability": "nonpayable",
      "type": "function"
    },
    {
      "inputs": [
        {
          "internalType": "address",
          "name": "contractOnSchain",
          "type": "address"
        }
      ],
      "name": "registerExtraContractForAll",
      "outputs": [],
      "stateMutability": "nonpayable",
      "type": "function"
    },
    {
      "inputs": [
        {
          "internalType": "bytes32",
          "name": "",
          "type": "bytes32"
        },
        {
          "internalType": "address",
          "name": "",
          "type": "address"
        }
      ],
      "name": "registryContracts",
      "outputs": [
        {
          "internalType": "bool",
          "name": "",
          "type": "bool"
        }
      ],
      "stateMutability": "view",
      "type": "function"
    },
    {
      "inputs": [
        {
          "internalType": "string",
          "name": "schainName",
          "type": "string"
        }
      ],
      "name": "removeConnectedChain",
      "outputs": [],
      "stateMutability": "nonpayable",
      "type": "function"
    },
    {
      "inputs": [
        {
          "internalType": "string",
          "name": "schainName",
          "type": "string"
        },
        {
          "internalType": "address",
          "name": "contractOnSchain",
          "type": "address"
        }
      ],
      "name": "removeExtraContract",
      "outputs": [],
      "stateMutability": "nonpayable",
      "type": "function"
    },
    {
      "inputs": [
        {
          "internalType": "address",
          "name": "contractOnSchain",
          "type": "address"
        }
      ],
      "name": "removeExtraContractForAll",
      "outputs": [],
      "stateMutability": "nonpayable",
      "type": "function"
    },
    {
      "inputs": [
        {
          "internalType": "bytes32",
          "name": "role",
          "type": "bytes32"
        },
        {
          "internalType": "address",
          "name": "account",
          "type": "address"
        }
      ],
      "name": "renounceRole",
      "outputs": [],
      "stateMutability": "nonpayable",
      "type": "function"
    },
    {
      "inputs": [
        {
          "internalType": "bytes32",
          "name": "role",
          "type": "bytes32"
        },
        {
          "internalType": "address",
          "name": "account",
          "type": "address"
        }
      ],
      "name": "revokeRole",
      "outputs": [],
      "stateMutability": "nonpayable",
      "type": "function"
    },
    {
      "inputs": [],
      "name": "schainHash",
      "outputs": [
        {
          "internalType": "bytes32",
          "name": "",
          "type": "bytes32"
        }
      ],
      "stateMutability": "view",
      "type": "function"
    },
    {
      "inputs": [
        {
          "internalType": "string",
          "name": "schainName",
          "type": "string"
        }
      ],
      "name": "setCountersToZero",
      "outputs": [],
      "stateMutability": "nonpayable",
      "type": "function"
    },
    {
      "inputs": [
        {
          "internalType": "uint256",
          "name": "newGasLimit",
          "type": "uint256"
        }
      ],
      "name": "setNewGasLimit",
      "outputs": [],
      "stateMutability": "nonpayable",
      "type": "function"
    },
    {
      "inputs": [
        {
          "components": [
            {
              "internalType": "string",
              "name": "dstChain",
              "type": "string"
            },
            {
              "internalType": "uint256",
              "name": "msgCounter",
              "type": "uint256"
            },
            {
              "internalType": "address",
              "name": "srcContract",
              "type": "address"
            },
            {
              "internalType": "address",
              "name": "dstContract",
              "type": "address"
            },
            {
              "internalType": "bytes",
              "name": "data",
              "type": "bytes"
            }
          ],
          "internalType": "struct MessageProxyForSchain.OutgoingMessageData",
          "name": "message",
          "type": "tuple"
        }
      ],
      "name": "verifyOutgoingMessageData",
      "outputs": [
        {
          "internalType": "bool",
          "name": "isValidMessage",
          "type": "bool"
        }
      ],
      "stateMutability": "view",
      "type": "function"
    }
  ],
  "bytecode": "0x608060405234801561001057600080fd5b506136ce806100206000396000f3fe608060405234801561001057600080fd5b50600436106101fb5760003560e01c8063999ab9aa1161011a578063cab010c9116100ad578063f2f636051161007c578063f2f6360514610413578063f399e22e14610426578063f68016b714610439578063f79f795414610441578063f8c88a1614610449576101fb565b8063cab010c9146103b8578063d547741f146103cb578063e45b045f146103de578063e6ab8403146103f1576101fb565b8063ac2f861e116100e9578063ac2f861e14610382578063b51cc14d1461038a578063bbc4e8c21461039d578063ca15c873146103a5576101fb565b8063999ab9aa14610341578063a217fddf14610354578063a78868c81461035c578063a8bb1b7d1461036f576101fb565b80634da84ce51161019257806377fe0f311161016157806377fe0f31146102db5780637c5ad80c146102ee5780639010d07c1461030e57806391d148541461032e576101fb565b80634da84ce51461029a578063523c8ab6146102ad57806365e3781f146102b557806367ec6020146102c8576101fb565b80633b597ffe116101ce5780633b597ffe146102595780633b690b6b1461026c5780633cdd2cc3146102745780634d20385914610287576101fb565b806313c5226014610200578063248a9ca31461021e5780632f2ff15d1461023157806336568abe14610246575b600080fd5b61020861045c565b6040516102159190612c20565b60405180910390f35b61020861022c366004612777565b610480565b61024461023f36600461278f565b610495565b005b61024461025436600461278f565b6104e6565b610244610267366004612777565b610528565b610208610573565b61024461028236600461282d565b610579565b61024461029536600461273b565b610689565b6102446102a836600461282d565b610762565b610208610834565b6102446102c33660046128c2565b610846565b6102086102d636600461282d565b6109ee565b6102086102e936600461282d565b610a5b565b6103016102fc36600461278f565b610ac3565b6040516102159190612c15565b61032161031c3660046127be565b610ae3565b6040516102159190612bdd565b61030161033c36600461278f565b610b02565b61030161034f36600461282d565b610b1a565b610208610b66565b61024461036a366004612944565b610b6b565b61024461037d36600461273b565b610dca565b610208610e9f565b610301610398366004612a44565b610ec3565b610208610f2a565b6102086103b3366004612777565b610f4e565b6102446103c636600461286d565b610f65565b6102446103d936600461278f565b611068565b6102446103ec36600461282d565b6110a2565b6104046103ff366004612777565b611171565b60405161021593929190613489565b61024461042136600461282d565b611195565b6102446104343660046127df565b6112ae565b61020861140b565b610321611411565b61024461045736600461286d565b611420565b7f2785f35fe7d8743aa971942d8474737bb31895d396eff2cc688a481e0221e19181565b60009081526033602052604090206002015490565b6000828152603360205260409020600201546104b39061033c61151f565b6104d85760405162461bcd60e51b81526004016104cf90612d4b565b60405180910390fd5b6104e28282611524565b5050565b6104ee61151f565b6001600160a01b0316816001600160a01b03161461051e5760405162461bcd60e51b81526004016104cf9061343a565b6104e2828261158d565b6105527f96e3fc3be15159903e053027cff8a23f39a990e0194abcd8ac1cf1b355b8b93c33610b02565b61056e5760405162461bcd60e51b81526004016104cf90612e70565b606c55565b60665481565b6105a37f2785f35fe7d8743aa971942d8474737bb31895d396eff2cc688a481e0221e19133610b02565b6105bf5760405162461bcd60e51b81526004016104cf90612eb6565b600082826040516020016105d4929190612b9e565b6040516020818303038152906040528051906020012090506040516020016105fb90612bca565b604051602081830303815290604052805190602001208114156106305760405162461bcd60e51b81526004016104cf906133f1565b60008181526067602052604090206002015460ff166106615760405162461bcd60e51b81526004016104cf90613283565b60009081526067602052604081208181556001810191909155600201805460ff191690555050565b6106a160008051602061361383398151915233610b02565b6106bd5760405162461bcd60e51b81526004016104cf90612d9a565b6106cf816001600160a01b03166115f6565b6106eb5760405162461bcd60e51b81526004016104cf90613319565b6001600160a01b0381166000908152600080516020613679833981519152602052604090205460ff16156107315760405162461bcd60e51b81526004016104cf906133ad565b6001600160a01b0316600090815260008051602061367983398151915260205260409020805460ff19166001179055565b61078c7f621a88c2734d2b469650b9ed1f143b5eea096e7e7bb5c68a326ac7aee5e7f94633610b02565b6107a85760405162461bcd60e51b81526004016104cf906132e2565b60006067600084846040516020016107c1929190612b9e565b604051602081830303815290604052805190602001208152602001908152602001600020600001819055506000606760008484604051602001610805929190612b9e565b604051602081830303815290604052805190602001208152602001908152602001600020600101819055505050565b60008051602061361383398151915281565b6000858560405160200161085b929190612b9e565b60408051601f1981840301815291815281516020928301206000818152606790935291206002015490915060ff166108a55760405162461bcd60e51b81526004016104cf906131e3565b336000908152600080516020613679833981519152602052604090205460ff16806108e957506000818152606b6020908152604080832033845290915290205460ff165b6109055760405162461bcd60e51b81526004016104cf90612e2f565b6000818152606760205260409020600190810154610922916115fc565b60008281526067602090815260409182902060010192909255805160c0601f89018490049093028101830190915260a081018781526109e6928291908a908a908190850183828082843760009201829052509385525050508481526067602090815260409182902060010154600019018184015233828401526001600160a01b03891660608401528151601f880182900482028101820190925286825260809092019187908790819084018382808284376000920191909152505050915250611621565b505050505050565b6000808383604051602001610a04929190612b9e565b60408051601f1981840301815291815281516020928301206000818152606790935291206002015490915060ff16610a40576000915050610a55565b60009081526067602052604090206001015490505b92915050565b6000808383604051602001610a71929190612b9e565b60408051601f1981840301815291815281516020928301206000818152606790935291206002015490915060ff16610aad576000915050610a55565b6000908152606760205260409020549392505050565b606b60209081526000928352604080842090915290825290205460ff1681565b6000828152603360205260408120610afb90836116f6565b9392505050565b6000828152603360205260408120610afb9083611702565b6000606760008484604051602001610b33929190612b9e565b60408051808303601f190181529181528151602092830120835290820192909252016000206002015460ff169392505050565b600081565b60008787604051602001610b80929190612b9e565b604051602081830303815290604052805190602001209050610bab610ba58686611717565b84611806565b610bc75760405162461bcd60e51b81526004016104cf90613001565b60008181526067602052604090206002015460ff16610bf85760405162461bcd60e51b81526004016104cf90613283565b6000818152606760205260409020548614610c255760405162461bcd60e51b81526004016104cf906130e7565b60005b84811015610d8c576000828152606b6020526040812090878784818110610c4b57fe5b9050602002810190610c5d91906134e6565b610c6e90604081019060200161273b565b6001600160a01b0316815260208101919091526040016000205460ff16158015610cfb57506000808052606b60205260008051602061367983398151915290878784818110610cb957fe5b9050602002810190610ccb91906134e6565b610cdc90604081019060200161273b565b6001600160a01b0316815260208101919091526040016000205460ff16155b15610d57578087017f4b7d3908626050c0d998d657e4e6f31cb43ed736bf2b9a1a0192494537ca0e5960405180606001604052806026815260200161363360269139604051610d4a9190612c70565b60405180910390a2610d84565b610d8282878784818110610d6757fe5b9050602002810190610d7991906134e6565b896001016118b3565b505b600101610c28565b50600081815260676020526040902054610da690856115fc565b600082815260676020526040902055610dbf8183611a22565b505050505050505050565b610de260008051602061361383398151915233610b02565b610dfe5760405162461bcd60e51b81526004016104cf90613350565b610e10816001600160a01b03166115f6565b610e2c5760405162461bcd60e51b81526004016104cf90613319565b6001600160a01b0381166000908152600080516020613679833981519152602052604090205460ff16610e715760405162461bcd60e51b81526004016104cf9061306f565b6001600160a01b0316600090815260008051602061367983398151915260205260409020805460ff19169055565b7f621a88c2734d2b469650b9ed1f143b5eea096e7e7bb5c68a326ac7aee5e7f94681565b6000808260000151604051602001610edb9190612bae565b60408051601f198184030181529181528151602092830120600081815260688452828120878501518252909352912054909150610f1784611aae565b811415610f2357600192505b5050919050565b7f96e3fc3be15159903e053027cff8a23f39a990e0194abcd8ac1cf1b355b8b93c81565b6000818152603360205260408120610a5590611b41565b60008383604051602001610f7a929190612b9e565b604051602081830303815290604052805190602001209050610faa60008051602061361383398151915233610b02565b610fc65760405162461bcd60e51b81526004016104cf90613144565b610fd8826001600160a01b03166115f6565b610ff45760405162461bcd60e51b81526004016104cf90613319565b6000818152606b602090815260408083206001600160a01b038616845290915290205460ff16156110375760405162461bcd60e51b81526004016104cf906133ad565b6000908152606b602090815260408083206001600160a01b03909416835292905220805460ff191660011790555050565b6000828152603360205260409020600201546110869061033c61151f565b61051e5760405162461bcd60e51b81526004016104cf90612fb1565b6110cc7f621a88c2734d2b469650b9ed1f143b5eea096e7e7bb5c68a326ac7aee5e7f94633610b02565b6110e85760405162461bcd60e51b81526004016104cf906132e2565b6111306001606760008585604051602001611104929190612b9e565b60408051601f1981840301815291815281516020928301208352908201929092520160002054906115fc565b606760008484604051602001611147929190612b9e565b60408051601f19818403018152918152815160209283012083529082019290925201600020555050565b60676020526000908152604090208054600182015460029092015490919060ff1683565b6111bf7f2785f35fe7d8743aa971942d8474737bb31895d396eff2cc688a481e0221e19133610b02565b6111db5760405162461bcd60e51b81526004016104cf90612eb6565b600082826040516020016111f0929190612b9e565b60405160208183030381529060405280519060200120905060665481141561122a5760405162461bcd60e51b81526004016104cf90612d14565b60008181526067602052604090206002015460ff161561125c5760405162461bcd60e51b81526004016104cf90613038565b604080516060810182526000808252602080830182815260018486018181529684526067909252939091209151825591519181019190915590516002909101805460ff19169115159190911790555050565b600054610100900460ff16806112c757506112c7611b4c565b806112d5575060005460ff16155b6112f15760405162461bcd60e51b81526004016104cf90613195565b600054610100900460ff1615801561131c576000805460ff1961ff0019909116610100171660011790555b611324611b5d565b61132f6000336104d8565b606580546001600160a01b0319166001600160a01b0385161790556040805160608101825260008082526020808301829052600183850152925191926067926113789101612bca565b60408051808303601f19018152918152815160209283012083528282019390935290820160002083518155838201516001820155928201516002909301805460ff191693151593909317909255516113d291849101612bae565b60408051601f198184030181529190528051602090910120606655622dc6c0606c558015611406576000805461ff00191690555b505050565b606c5481565b6065546001600160a01b031681565b60008383604051602001611435929190612b9e565b60405160208183030381529060405280519060200120905061146560008051602061361383398151915233610b02565b6114815760405162461bcd60e51b81526004016104cf90612cc5565b611493826001600160a01b03166115f6565b6114af5760405162461bcd60e51b81526004016104cf90613319565b6000818152606b602090815260408083206001600160a01b038616845290915290205460ff166114f15760405162461bcd60e51b81526004016104cf9061306f565b6000908152606b602090815260408083206001600160a01b03909416835292905220805460ff191690555050565b335b90565b600082815260336020526040902061153c9082611bf0565b156104e25761154961151f565b6001600160a01b0316816001600160a01b0316837f2f8788117e7eff1d82e926ec794901d17c78024a50270940304540a733656f0d60405160405180910390a45050565b60008281526033602052604090206115a59082611c05565b156104e2576115b261151f565b6001600160a01b0316816001600160a01b0316837ff6391f5c32d9c69d2a47ea670b442974b53935d1edc7fd64eb21e047a839171b60405160405180910390a45050565b3b151590565b600082820183811015610afb5760405162461bcd60e51b81526004016104cf90612df8565b805160405160009161163591602001612bae565b60405160208183030381529060405280519060200120905081604001516001600160a01b03168260200151827f803d7f3ca0e5f93fcce39fa29812ed57a95a151594966e17125220132741c6b08560600151866080015160405161169a929190612bf1565b60405180910390a46116ab82611aae565b6000828152606860209081526040808320606a80845282852080548652918452918420949094559184905252546116e39060016115fc565b6000918252606a60205260409091205550565b6000610afb8383611c1a565b6000610afb836001600160a01b038416611c5f565b6000606060005b838110156117f6578185858381811061173357fe5b905060200281019061174591906134e6565b61175390602081019061273b565b60601b6001600160601b03191686868481811061176c57fe5b905060200281019061177e91906134e6565b61178f90604081019060200161273b565b60601b6001600160601b0319168787858181106117a857fe5b90506020028101906117ba91906134e6565b6117c89060408101906134a1565b6040516020016117dc959493929190612b67565b60408051601f19818403018152919052915060010161171e565b5080516020909101209392505050565b60408051808201825282358152602080840135908201526065548251632aa77bd360e11b81528351600094610afb949388936080808a013594938a01359360608b0135936001600160a01b03169263554ef7a6926004808301939192829003018186803b15801561187657600080fd5b505afa15801561188a573d6000803e3d6000fd5b505050506040513d601f19601f820116820180604052508101906118ae9190612a04565b611c77565b60006118c5604084016020850161273b565b6001600160a01b031663884cee5a606c54868660000160208101906118ea919061273b565b6118f760408901896134a1565b6040518663ffffffff1660e01b81526004016119169493929190612c29565b602060405180830381600088803b15801561193057600080fd5b5087f193505050508015611961575060408051601f3d908101601f1916820190925261195e91810190612757565b60015b611a1a5761196d613558565b8061197857506119ba565b827f4b7d3908626050c0d998d657e4e6f31cb43ed736bf2b9a1a0192494537ca0e59826040516119a89190612c70565b60405180910390a26000915050610afb565b3d8080156119e4576040519150601f19603f3d011682016040523d82523d6000602084013e6119e9565b606091505b50827f4b7d3908626050c0d998d657e4e6f31cb43ed736bf2b9a1a0192494537ca0e59826040516119a89190612c70565b949350505050565b6000828152606a602090815260408083205460699092528220545b83811015611a7757818110611a5157611a77565b600085815260686020908152604080832084845290915281205560019283019201611a3d565b508115611aa757600084815260696020526040902054611a9790836115fc565b6000858152606960205260409020555b5092915050565b600060608260000151604051602001611ac79190612bae565b60405160208183030381529060405280519060200120836020015160001b846040015160601b6001600160601b031916856060015160601b6001600160601b0319168660800151604051602001611b22959493929190612b2c565b60408051808303601f1901815291905280516020909101209392505050565b6000610a5582611db5565b6000611b57306115f6565b15905090565b600054610100900460ff1680611b765750611b76611b4c565b80611b84575060005460ff16155b611ba05760405162461bcd60e51b81526004016104cf90613195565b600054610100900460ff16158015611bcb576000805460ff1961ff0019909116610100171660011790555b611bd3611db9565b611bdb611db9565b8015611bed576000805461ff00191690555b50565b6000610afb836001600160a01b038416611e3a565b6000610afb836001600160a01b038416611e84565b81546000908210611c3d5760405162461bcd60e51b81526004016104cf90612c83565b826000018281548110611c4c57fe5b9060005260206000200154905092915050565b60009081526001919091016020526040902054151590565b6000611c8287611f4a565b611c9e5760405162461bcd60e51b81526004016104cf90612f22565b611caa86868686611f80565b611cb657506000611dab565b6000611cc58860200151612052565b9050611cd5886000015182612076565b611cf15760405162461bcd60e51b81526004016104cf906132ba565b611cfb8585612076565b611d175760405162461bcd60e51b81526004016104cf90612f52565b611d1f6125bc565b611d276120a6565b9050611d3284612166565b611d4e5760405162461bcd60e51b81526004016104cf90613255565b611da68960000151838360000151602001518460000151600001518560200151602001518660200151600001518c8c8c60000151602001518d60000151600001518e60200151602001518f602001516000015161217a565b925050505b9695505050505050565b5490565b600054610100900460ff1680611dd25750611dd2611b4c565b80611de0575060005460ff16155b611dfc5760405162461bcd60e51b81526004016104cf90613195565b600054610100900460ff16158015611bdb576000805460ff1961ff0019909116610100171660011790558015611bed576000805461ff001916905550565b6000611e468383611c5f565b611e7c57508154600181810184556000848152602080822090930184905584548482528286019093526040902091909155610a55565b506000610a55565b60008181526001830160205260408120548015611f405783546000198083019190810190600090879083908110611eb757fe5b9060005260206000200154905080876000018481548110611ed457fe5b600091825260208083209091019290925582815260018981019092526040902090840190558654879080611f0457fe5b60019003818190600052602060002001600090559055866001016000878152602001908152602001600020600090556001945050505050610a55565b6000915050610a55565b60006000805160206136598339815191528260000151108015610a55575050602001516000805160206136598339815191521190565b60006064841115611f9357506000611a1a565b60008051602061365983398151915280860690611fb082876115fc565b81611fb757fe5b06905060006000805160206136598339815191526003600080516020613659833981519152846000805160206136598339815191528687090908905061200c6000805160206136598339815191526002612223565b84108061202a57508060008051602061365983398151915285860914155b806120355750848214155b1561204557600092505050611a1a565b5060019695505050505050565b6000610a556000805160206136598339815191526120708185612255565b9061227d565b60006000805160206136598339815191528060038186818889090908818061209a57fe5b84850914949350505050565b6120ae6125bc565b50604080516080810182527f1800deef121f1e76426a00665e5c4479674322d4f75edadd46debd5cd992f6ed8183019081527f198e9393920d483a7260bfb731fb5d25f1aa493335a9e71297e485b7aef312c26060830152815281518083019092527f12c85ea5db8c6deb4aab71808dcb408fe3d1e7690c43d37b4ce6cc0166fa7daa82527f090689d0585ff075ec9e99ad690c3395bc4b313370b38ef355acdadcd122975b60208381019190915281019190915290565b6000610a55826000015183602001516122af565b6000806121856125e1565b8e8152602081018e9052604081018d9052606081018c9052608081018b905260a081018a905260c0810189905260e0810188905261010081018790526101208101869052610140810185905261016081018490526121e1612600565b602081610180846008600019fa92508261220d5760405162461bcd60e51b81526004016104cf90613227565b5115159f9e505050505050505050505050505050565b60008082116122445760405162461bcd60e51b81526004016104cf90612f7a565b81838161224d57fe5b049392505050565b6000828211156122775760405162461bcd60e51b81526004016104cf90612eeb565b50900390565b600080821161229e5760405162461bcd60e51b81526004016104cf906130b0565b8183816122a757fe5b069392505050565b60006122bb838361232e565b156122c857506001610a55565b6122d061261e565b6122d983612361565b90506122e361261e565b6123116122ee6123e6565b61230b612304886122fe8a612361565b90612444565b8590612508565b90612508565b805190915015801561232557506020810151155b95945050505050565b815160009015801561234257506020830151155b801561234f575081516001145b8015610afb5750506020015115919050565b61236961261e565b600080516020613659833981519152600081602085015185510990506000828061238f57fe5b838061239757fe5b848061239f57fe5b8760200151600187030987510884806123b457fe5b6020880151885108099050604051806040016040528082815260200184806123d857fe5b848508905295945050505050565b6123ee61261e565b50604080518082019091527f2b149d40ceb8aaae81be18991be06ac3b5b4c5e559dbefa33267e6dc24a138e581527e9713b03af0fed4cd2cafadeed8fdf4a74fa084e52d1852e4a2bd0685c315d2602082015290565b61244c61261e565b60008051602061365983398151915261246361261e565b6040518060400160405280838061247657fe5b86518851098152602001838061248857fe5b866020015188602001510990529050818061249f57fe5b82806124a757fe5b82602001516001850309825108835281806124be57fe5b82806124c657fe5b6020830151835108830383806124d857fe5b84806124e057fe5b602088015188510885806124f057fe5b60208a01518a51080908602084015250909392505050565b61251061261e565b81518351600080516020613659833981519152911161254157808061253157fe5b8351855190830390088252612561565b61255e81828061254d57fe5b86518651908503900883039061227d565b82525b826020015184602001511061258f57808061257857fe5b836020015182038560200151086020830152611aa7565b6125b081828061259b57fe5b8660200151840386602001510883039061227d565b60208301525092915050565b60405180604001604052806125cf61261e565b81526020016125dc61261e565b905290565b604051806101800160405280600c906020820280368337509192915050565b60405180602001604052806001906020820280368337509192915050565b604051806040016040528060008152602001600081525090565b8035610a55816135fd565b60008083601f840112612654578182fd5b50813567ffffffffffffffff81111561266b578182fd5b60208301915083602082850101111561268357600080fd5b9250929050565b600082601f83011261269a578081fd5b813567ffffffffffffffff8111156126b0578182fd5b6126c3601f8201601f19166020016134fb565b91508082528360208285010111156126da57600080fd5b8060208401602084013760009082016020015292915050565b600060408284031215612704578081fd5b61270e60406134fb565b9050815181526020820151602082015292915050565b600060a08284031215612735578081fd5b50919050565b60006020828403121561274c578081fd5b8135610afb816135fd565b600060208284031215612768578081fd5b81518015158114610afb578182fd5b600060208284031215612788578081fd5b5035919050565b600080604083850312156127a1578081fd5b8235915060208301356127b3816135fd565b809150509250929050565b600080604083850312156127d0578182fd5b50508035926020909101359150565b600080604083850312156127f1578182fd5b82356127fc816135fd565b9150602083013567ffffffffffffffff811115612817578182fd5b6128238582860161268a565b9150509250929050565b6000806020838503121561283f578182fd5b823567ffffffffffffffff811115612855578283fd5b61286185828601612643565b90969095509350505050565b600080600060408486031215612881578081fd5b833567ffffffffffffffff811115612897578182fd5b6128a386828701612643565b90945092505060208401356128b7816135fd565b809150509250925092565b6000806000806000606086880312156128d9578081fd5b853567ffffffffffffffff808211156128f0578283fd5b6128fc89838a01612643565b909750955060208801359150612911826135fd565b90935060408701359080821115612926578283fd5b5061293388828901612643565b969995985093965092949392505050565b6000806000806000806000610120888a03121561295f578485fd5b873567ffffffffffffffff80821115612976578687fd5b6129828b838c01612643565b909950975060208a0135965060408a01359150808211156129a1578384fd5b818a0191508a601f8301126129b4578384fd5b8135818111156129c2578485fd5b8b602080830285010111156129d5578485fd5b6020830196508095505050506129ee8960608a01612724565b9150610100880135905092959891949750929550565b600060808284031215612a15578081fd5b612a1f60406134fb565b612a2984846126f3565b8152612a3884604085016126f3565b60208201529392505050565b600060208284031215612a55578081fd5b813567ffffffffffffffff80821115612a6c578283fd5b9083019060a08286031215612a7f578283fd5b612a8960a06134fb565b823582811115612a97578485fd5b612aa38782860161268a565b82525060208301356020820152612abd8660408501612638565b6040820152612acf8660608501612638565b6060820152608083013582811115612ae5578485fd5b612af18782860161268a565b60808301525095945050505050565b60008151808452612b18816020860160208601613522565b601f01601f19169290920160200192915050565b60008682528560208301528460408301528360608301528251612b56816080850160208701613522565b919091016080019695505050505050565b60008651612b79818460208b01613522565b8201868152602081018690528385604083013790920160400191825250949350505050565b6000828483379101908152919050565b60008251612bc0818460208701613522565b9190910192915050565b6613585a5b9b995d60ca1b815260070190565b6001600160a01b0391909116815260200190565b6001600160a01b0383168152604060208201819052600090611a1a90830184612b00565b901515815260200190565b90815260200190565b8481526001600160a01b03841660208201526060604082018190528101829052600082846080840137818301608090810191909152601f909201601f191601019392505050565b600060208252610afb6020830184612b00565b60208082526022908201527f456e756d657261626c655365743a20696e646578206f7574206f6620626f756e604082015261647360f01b606082015260800190565b6020808252602f908201527f4e6f7420656e6f756768207065726d697373696f6e7320746f2072656d6f766560408201526e08195e1d1c984818dbdb9d1c9858dd608a1b606082015260800190565b6020808252601c908201527f53636861696e2063616e6e6f7420636f6e6e65637420697473656c6600000000604082015260600190565b6020808252602f908201527f416363657373436f6e74726f6c3a2073656e646572206d75737420626520616e60408201526e0818591b5a5b881d1bc819dc985b9d608a1b606082015260800190565b602080825260409082018190527f4e6f7420656e6f756768207065726d697373696f6e7320746f20726567697374908201527f657220657874726120636f6e747261637420666f7220616c6c20636861696e73606082015260800190565b6020808252601b908201527f536166654d6174683a206164646974696f6e206f766572666c6f770000000000604082015260600190565b60208082526021908201527f53656e64657220636f6e7472616374206973206e6f74207265676973746572656040820152601960fa1b606082015260800190565b60208082526026908201527f4e6f7420656e6f756768207065726d697373696f6e7320746f2073657420636f6040820152651b9cdd185b9d60d21b606082015260800190565b6020808252818101527f434841494e5f434f4e4e4543544f525f524f4c45206973207265717569726564604082015260600190565b6020808252601e908201527f536166654d6174683a207375627472616374696f6e206f766572666c6f770000604082015260600190565b60208082526016908201527514da59db985d1d5c99481a5cc81b9bdd081d985b1a5960521b604082015260600190565b6020808252600e908201526d48617368206e6f7420696e20473160901b604082015260600190565b6020808252601a908201527f536166654d6174683a206469766973696f6e206279207a65726f000000000000604082015260600190565b60208082526030908201527f416363657373436f6e74726f6c3a2073656e646572206d75737420626520616e60408201526f2061646d696e20746f207265766f6b6560801b606082015260800190565b60208082526019908201527f5369676e6174757265206973206e6f7420766572696669656400000000000000604082015260600190565b6020808252601a908201527f436861696e20697320616c726561647920636f6e6e6563746564000000000000604082015260600190565b60208082526021908201527f457874726120636f6e747261637420697320616c72656164792072656d6f76656040820152601960fa1b606082015260800190565b60208082526018908201527f536166654d6174683a206d6f64756c6f206279207a65726f0000000000000000604082015260600190565b60208082526038908201527f5374617274696e6720636f756e746572206973206e6f74207175616c20746f2060408201527f696e636f6d696e67206d65737361676520636f756e7465720000000000000000606082015260800190565b60208082526031908201527f4e6f7420656e6f756768207065726d697373696f6e7320746f20726567697374604082015270195c88195e1d1c984818dbdb9d1c9858dd607a1b606082015260800190565b6020808252602e908201527f496e697469616c697a61626c653a20636f6e747261637420697320616c72656160408201526d191e481a5b9a5d1a585b1a5e995960921b606082015260800190565b60208082526024908201527f44657374696e6174696f6e20636861696e206973206e6f7420696e697469616c6040820152631a5e995960e21b606082015260800190565b60208082526014908201527314185a5c9a5b99c818da1958dac819985a5b195960621b604082015260600190565b602080825260149082015273283ab13634b19025b2bc903737ba1034b710239960611b604082015260600190565b60208082526018908201527f436861696e206973206e6f7420696e697469616c697a65640000000000000000604082015260600190565b6020808252600e908201526d5369676e206e6f7420696e20473160901b604082015260600190565b60208082526019908201527f44454255474745525f524f4c4520697320726571756972656400000000000000604082015260600190565b6020808252601f908201527f476976656e2061646472657373206973206e6f74206120636f6e747261637400604082015260600190565b6020808252603e908201527f4e6f7420656e6f756768207065726d697373696f6e7320746f2072656d6f766560408201527f20657874726120636f6e747261637420666f7220616c6c20636861696e730000606082015260800190565b60208082526024908201527f457874726120636f6e747261637420697320616c726561647920726567697374604082015263195c995960e21b606082015260800190565b60208082526029908201527f4e657720636861696e20686173682063616e6e6f7420626520657175616c20746040820152681bc813585a5b9b995d60ba1b606082015260800190565b6020808252602f908201527f416363657373436f6e74726f6c3a2063616e206f6e6c792072656e6f756e636560408201526e103937b632b9903337b91039b2b63360891b606082015260800190565b92835260208301919091521515604082015260600190565b6000808335601e198436030181126134b7578283fd5b83018035915067ffffffffffffffff8211156134d1578283fd5b60200191503681900382131561268357600080fd5b60008235605e19833603018112612bc0578182fd5b60405181810167ffffffffffffffff8111828210171561351a57600080fd5b604052919050565b60005b8381101561353d578181015183820152602001613525565b8381111561354c576000848401525b50505050565b60e01c90565b600060443d101561356857611521565b600481823e6308c379a061357c8251613552565b1461358657611521565b6040513d600319016004823e80513d67ffffffffffffffff81602484011181841117156135b65750505050611521565b828401925082519150808211156135d05750505050611521565b503d830160208284010111156135e857505050611521565b601f01601f1916810160200160405291505090565b6001600160a01b0381168114611bed57600080fdfe6155b5aac15ce9aa193c0527a6f43be0a36a7e2e7496c2b615c0e5f92284277344657374696e6174696f6e20636f6e7472616374206973206e6f74207265676973746572656430644e72e131a029b85045b68181585d97816a916871ca8d3c208c16d87cfd47c8cc8bda7ad4886bea3ebbdafa02e79d37c39bf4011696b26a31a0802fd9458ba26469706673582212206f5bec865f9ce52d4588f311842d6507a781f9e7e18ee993678652c5c6a826e064736f6c634300060c0033",
  "linkReferences": {},
  "deployedLinkReferences": {}
}